:100000000C9465020C94A9020C94A9020C94A90208
:100010000C94A9020C94A9020C94A9020C94A902B4
:100020000C94A9020C94A9020C94AF0B0C94810CB3
:100030000C94A9020C94A9020C94A9020C94A90294
:100040000C94A9020C9434210C94A9020C94A902DA
:100050000C94A9020C94BE1A0C94A9020C94A90247
:100060000C94A9020C94A9020C94A9020C94A90264
:100070000C94A9020C94A9020C94A9020C94A90254
:100080000C94A9020C94A9020C94A9020C94A90244
:100090000C94A9020C94A9020C94A9020C94A90234
:1000A0000C94A9020C94A9020C94A902EE0C100D58
:1000B000FE0D100DFE0D550D780DFE0DCD0DE00D54
:1000C000CB10CB10FA10FA103D117B11941394133E
:1000D00094119413951295126813941394137F132B
:1000E0000000F0A135002B000152E100E00000000B
:1000F0001E00140004001D7100774E001F001A003E
:1001000016001B00007F2A002000080007000600E0
:10011000E2002C002100150009001900E3004B004B
:10012000220017000A00050000004A0029002F00E5
:100130000000290000004D002D00300000002A00C2
:100140000000500023001C000B00110000004F00B5
:10015000240018000D001000E700520025000C00DC
:100160000E003600E6002800260012000F003700BF
:10017000007F2B00270013003300387100774C00FC
:100180002E0031823481E500E40000002900025293
:1001900001000100010000003A001E0220022202BC
:1001A000010051003B001F02210223020100280030
:1001B0003C002F0226022F0001002C003D003002DF
:1001C00027023000010052003E00240235003502B3
:1001D000000050000100360200002B0000004F001C
:1001E0000100370200002B0200004A003F003102EC
:1001F0005000310000004D0040005F0051005900E8
:1002000062004B004100600052005A0037004C0071
:10021000420061004F005B0067002A004300540069
:100220005500560057004E004400450001003900BB
:1002300058000000290002520100010001000000E6
:10024000A5000100010001000100B500A6000100A9
:10025000F200010001000100A800F000F100F1002F
:10026000F400B600AA00F900F3000100FA00B4009F
:10027000A9000100010001000000B8000100F90020
:100280000000FA000000B9000100F9000000FA00C7
:100290000000AC0001000100500001000000AB00B4
:1002A0004600F9005100FA000100A9004B0052007D
:1002B000520051004E00AE00B30001004F0001009B
:1002C0000100AD00B10001004D0001000100AA00D5
:1002D00001000100010001000100000016034500BB
:1002E000720067006F0044006F0078002000450036
:1002F0005A00000016034500720067006F004400BA
:100300006F007800200045005A0000000403090433
:1003100009026D00040100A0FA09040000010301B4
:100320000100092111010001223F00070581030896
:10033000000A090401000103010200092111010062
:1003400001224D000705820308000A09040200018A
:100350000300000009211101000122360007058376
:100360000308000A09040300010300000009211129
:100370000100012239000705840310000112011059
:100380000100000008EDFE07130100010200010555
:10039000010906A101050719E029E71500250195C6
:1003A0000875018102050819012905950575019156
:1003B000029501750391010507190029771500259C
:1003C00001957875018102C005010980A1018502AE
:1003D00016010026B7001A01002AB7007510950112
:1003E0008100C0050C0901A1018503160100269CAE
:1003F000021A01002A9C02751095018100C00501B6
:100400000902A1010901A100050919012905150029
:10041000250195057501810295017503810105018D
:10042000093009311581257F950275088106093843
:100430001581257F950175088106050C0A3802157E
:1004400081257F950175088106C0C005010906A1B7
:1004500001050719E029E7150025019508750181B7
:100460000295017508810105081901290595057591
:100470000191029501750391010507190029FF15E6
:100480000025FF950675088100C0000000000000EF
:100490000000000000010204060A0F17202C3A4A4F
:1004A0005D71879DB3C7DAE9F5FCFFFCF5E9DAC7B2
:1004B000B39D87715D4A3A2C20170F0A060402018A
:1004C0000000000000000000000011241FBECFEF5C
:1004D000DAE0DEBFCDBF04B603FE24C08091EF0199
:1004E0009091F001A091F101B091F2018730904B11
:1004F000A740B04BB9F41092EF011092F0011092A6
:10050000F1011092F20114BE84B7877F84BF88E1A5
:100510000FB6F89480936000109260000FBEE0E088
:10052000FFE3099511E0A0E0B1E0ECEEF5E402C0D4
:1005300005900D92A433B107D9F711E0A4E3B1E01F
:1005400001C01D92AF3EB107E1F70E94F3080C9481
:10055000F4220C94000061110BC0FC0182818823FD
:1005600021F085EE0E94600F03C085EE0E942810E6
:1005700080E090E0089508956091B1017091B2011A
:100580008091B3019091B4010E94EA1956985E9847
:1005900025982D9826982E9827982F98813019F015
:1005A000823021F00895259A2D9A0895269A2E9A40
:1005B00008950C94BC0256985E9825982D9826981C
:1005C0002E9827982F988FEF90E090938900809332
:1005D000880090938B0080938A0090938D00809385
:1005E0008C00259A2D9A2FEF80E792E021508040D1
:1005F0009040E1F700C00000269A2E9A2FEF80E786
:1006000092E0215080409040E1F700C00000279A1E
:100610002F9A2FEF80E792E0215080409040E1F741
:1006200000C0000025982D982FEF80E792E0215020
:1006300080409040E1F700C0000026982E982FEFF0
:1006400080E792E0215080409040E1F700C0000038
:1006500027982F9856985E9825982D9826982E982A
:1006600027982F98089589EA8093800089E08093E5
:10067000810024982C983F988AB18F748AB96E981B
:10068000479A8BB1806B8BB9769A0E94DB020C94EF
:10069000BB0280E2809300018091340181110EC081
:1006A0000E94980381E0809334012FEF83ED90E363
:1006B000215080409040E1F700C0000080E40E949B
:1006C0009E038093000181112EC00E94C803809375
:1006D0000001811128C00E94C8038093000181118C
:1006E00022C08FE30E94C8038093000181111BC0C8
:1006F0000E94C00380E40E949E0380930001811148
:1007000012C08CE00E94C8038093000181110BC0CD
:100710000E94C80380930001811105C08FE30E94ED
:10072000C803809300010E94C003809100010895D6
:100730001092B9008AE08093B800089594EA9093EB
:10074000BC009091BC0097FFFCCF9091B900987FBE
:10075000983021F0903111F081E008958093BB0032
:1007600084E88093BC008091BC0087FFFCCF80911F
:10077000B900887F883111F0803471F780E00895E6
:1007800084E98093BC008091BC0084FDFCCF089577
:100790008093BB0084E88093BC008091BC0087FFFD
:1007A000FCCF9091B900987F81E0983209F480E005
:1007B000089584E88093BC008091BC0087FFFCCF43
:1007C0008091BB00089580910001811115C080E4E3
:1007D0000E949E038093000181110CC082E10E945F
:1007E000C80380930001811105C08FEF0E94C803E8
:1007F000809300010E94C00384B1807F84B985B1D9
:10080000807F85B98AB1837F8AB98BB1837F8BB9A9
:100810003E98469808950E944903809300010E94E3
:10082000E30380B38C7080BB81B3836F81BBA6E38D
:10083000B1E0E4E4F1E08EE08E0F11921D928E1390
:10084000FCCF0C943303BF92CF92DF92EF92FF92D2
:100850000F931F93CF93DF9380910001882379F04A
:10086000809135018F5F80933501811108C00E940E
:10087000490380930001811102C00E94DB0206E35C
:1008800011E0C0E0D0E0DD24D39482E0C82EEE2455
:10089000E394F12CC730D10500F58091000181115E
:1008A00064C080E40E949E0380930001811112C005
:1008B00082E10E94C8038093000181110BC0C7012F
:1008C0000C2E01C0880F0A94EAF780950E94C80395
:1008D000809300010E94C00348C0CA30A1F028F4F0
:1008E000C83059F0C93061F005C0CC3089F070F0E3
:1008F000CD3089F0209A289810C0219A29980DC0EF
:10090000229A2A980AC0239A2B9807C0529A01C0AB
:10091000539A5B9802C03E9A469890EA9A95F1F7EE
:100920009FB1799902C082E001C080E091709D255D
:10093000982B7C9902C084E001C080E0892B7D99CE
:1009400002C038E001C030E0832B7E9902C020E174
:1009500001C020E0822B9FB19095991F9927991F84
:100960009295990F907E892B0FC080910001811183
:1009700049C080E40E949E0380930001882379F19E
:10098000B12C0E94C0038B2DF8019081981719F0AB
:100990008083C09201010E94E30321960F5F1F4FE5
:1009A000CE30D10509F076CF80910101882361F125
:1009B000815080930101882339F08FE99FE00197EE
:1009C000F1F700C0000020C0A4E4B1E0E6E3F1E0EC
:1009D000CF01825F91919D938E13FCCF15C083E16F
:1009E0000E94C803809300018111CACF81E40E9454
:1009F0009E03809300018111C3CF0E94D903B82EBA
:100A0000B094BFCF80E0C0CF0E94D90281E0DF91D7
:100A1000CF911F910F91FF90EF90DF90CF90BF90FB
:100A20000895E82FF0E0EC5BFE4F80810895089573
:100A30008B3B910578F4883A910540F5853A91050C
:100A4000D0F48430910508F0B1C08130910509F4EB
:100A5000ADC06BC0803E910508F467C0883E91052B
:100A600008F4A4C09C01205F31092031310508F051
:100A70005CC090650895853A910509F459C0863A9D
:100A8000910509F058C082E890E40895883A9105EC
:100A900009F454C0893A910509F453C08A3A910582
:100AA00009F452C08B3A910509F451C08C3A910572
:100AB00009F450C08D3A910509F44FC0803B91056F
:100AC00009F44EC08E3A910509F44DC08F3A910554
:100AD00009F44CC0813B910509F44BC0823B910560
:100AE00009F44AC0833B910509F449C0843B910550
:100AF00009F448C0853B910509F447C0863B910540
:100B000009F446C0873B910509F445C0883B91052F
:100B100009F444C0893B910509F443C08A3B91051F
:100B200009F442C080E094E4089580E090E00895E4
:100B300081E890E4089583E890E4089582EE94E4D7
:100B4000089589EE94E408958AEE94E4089585EB7F
:100B500094E4089586EB94E4089587EB94E4089573
:100B60008CEC94E408958DEC94E4089583E895E486
:100B700008958AE895E4089582E995E4089584E962
:100B800095E4089581E296E4089583E296E4089559
:100B900084E296E4089585E296E4089586E296E478
:100BA000089587E296E408958AE296E40895089508
:100BB00096E0799FF001112494E5899FE00DF11DE5
:100BC0001124E60FF11DEE0FFF1FEC51FF4F859131
:100BD00094910895880F991FFC01E05AF040859187
:100BE00094910895880F991FFC01E052FF4F859161
:100BF0009491089526E0729FF001112444E5849FAA
:100C0000E00DF11D1124E60FF11DEE0FFF1FEC5159
:100C1000FF4F859194919C013A9521154FE134073E
:100C200008F41CC13F512115304120F49F700E94EF
:100C3000F20508959C0130532115304118F499278D
:100C4000906C0895811520E5920771F40E94B81305
:100C50004FEF84E39CE0415080409040E1F700C0BA
:100C600000000E94E31AFAC0813020E5920731F4B7
:100C70008091CD0181608093CD01F0C09C01305501
:100C80002115304108F051C0292F33272F70332709
:100C900021303105D9F4AC014370552702C0220F31
:100CA000331F4A95E2F73C68AC0164E0440F551FDE
:100CB0006A95E1F744275370242B352B73E0880F96
:100CC000991F7A95E1F7807699271DC0223031056A
:100CD00029F4982F8827816F906A08952330310571
:100CE000A9F4AC014370552721E030E002C0220F87
:100CF000331F4A95E2F73C6843E0880F991F4A95F5
:100D0000E1F7807E9770822B932B08952430310574
:100D1000E1F4AC014370552721E030E002C0220F1E
:100D2000331F4A95E2F73A68E7CF9C013057211507
:100D3000304118F49F70906208959C01305821153D
:100D4000304118F49F70906A0895803E9105E0F458
:100D5000803C910558F58133910509F46FC048F442
:100D60008932910509F463C08A32910509F46DC096
:100D700072C089339105E9F082389105D1F085334D
:100D8000910509F44DC067C0833E910581F138F4A7
:100D9000803E9105B9F0823E9105D9F05CC0863E57
:100DA000910561F1873E9105A1F155C00E94EA05C8
:100DB00008952091E00120FD02C021FF4CC080EE8B
:100DC00090E049C08091E00180FFF9CF89E390E095
:100DD00042C08091E00182FF0EC08091E00184FF5B
:100DE00003C080E090E037C083EE90E034C0809193
:100DF000E00182FFF2CF82EE90E02DC08091E00111
:100E000083FF0BC08091E00184FDEBCF87EE90E083
:100E100022C08091E00183FFF5CF86EE90E01BC0F9
:100E20008091E00185FF07C089E290E014C08091C5
:100E3000E00185FFF9CF85E390E00DC08091E001EE
:100E400086FF07C08AE290E006C08091E00186FF3D
:100E5000F9CF81E390E00E94180508950895089560
:100E60000C942F07809162010895CF93DF9300D0F7
:100E70001F92CDB7DEB79C018091E601843019F551
:100E800093E099833B832A839093E9008FEF9091BD
:100E9000E800815095FD06C095ED9A95F1F70000A8
:100EA0008111F5CF8091E80085FF0DC040E050E052
:100EB00063E070E0CE0101960E949F098091E800F6
:100EC0008E778093E8000F900F900F90DF91CF9175
:100ED0000895CF93DF9300D01F92CDB7DEB7209156
:100EE000E601243021F522E029839B838A8383E075
:100EF0008093E9008FEF9091E800815095FD06C046
:100F000095ED9A95F1F700008111F5CF8091E800F9
:100F100085FF0DC040E050E063E070E0CE01019637
:100F20000E949F098091E8008E778093E8000F90DF
:100F30000F900F90DF91CF9108952091E60124301A
:100F4000F1F422E02093E9002FEF3091E8002150E6
:100F500035FD06C035ED3A95F1F700002111F5CFCA
:100F60002091E80025FF0BC040E050E065E070E014
:100F70000E949F098091E8008E778093E800089591
:100F8000CF93DF93EC019091E601943009F046C0D5
:100F900080910C018823D9F080910D018823B9F04C
:100FA0009093E9008FEF9091E800815095FD06C085
:100FB00095E19A95F1F700008111F5CF8091E80055
:100FC00085FF2CC040E050E060E170E017C081E098
:100FD0008093E9008FEF9091E800815095FD06C065
:100FE00095ED9A95F1F700008111F5CF8091E80019
:100FF00085FF14C040E050E068E070E0CE010E9440
:101000009F098091E8008E778093E80080E1FE01DF
:10101000A2E5B1E001900D928A95E1F7DF91CF91C1
:1010200008958091E501811109C00E94340B0E944E
:10103000910B8091E20084608093E2000895109209
:10104000E501089508950C9421210E94791A0E94C7
:1010500027210E94370E0C94300742E061EC81E0BA
:101060000E94AE0A42E061EC82E00E94AE0A42E0D9
:1010700061EC83E00E94AE0A42E161EC84E00C94F2
:10108000AE0A8091E801833009F455C030F4813014
:1010900071F0823009F48EC008958A3009F47AC064
:1010A0008B3009F460C0893009F09CC020C0809169
:1010B000E701813A09F096C08091E800877F80932C
:1010C000E8008091EB019091EC01892B21F460E123
:1010D00082E591E003C060E080E090E070E00E9473
:1010E000EA098091E8008B778093E8000895809169
:1010F000E701813209F076C08091EB019091EC011B
:10110000009719F0039709F06DC08091E800877F80
:101110008093E8008091E80082FD05C08091E6019F
:101120008111F8CF5FC08091F100809362018091BE
:10113000E8008B7753C08091E701813A09F052C0F3
:101140008091EB019091EC01892B09F04BC08091CB
:10115000E800877F8093E8008091E80080FFFCCF63
:1011600080910C0136C08091E7018132D9F58091E0
:10117000EB019091EC01892BA9F58091E800877F24
:101180008093E8000E94E30A8091E90180930C01BA
:101190000C94B8138091E701813221F58091E80029
:1011A000877F8093E8000E94E30A8091EA018093A0
:1011B000630108958091E701813AA1F48091E800EC
:1011C000877F8093E8008091E80080FFFCCF8091CA
:1011D00063018093F1008091E8008E778093E800AE
:1011E0000C94E30A089584B7877F84BF88E10FB623
:1011F000F89480936000109260000FBE90E080E849
:101200000FB6F89480936100909361000FBE0E9426
:10121000860E0E94340B0E94910B8091E200846044
:101220008093E20078940E94170E0E94880E82E05C
:1012300091E00E94320E0E940F218091E6018530DC
:1012400069F40E943A1A8091E4018823B1F30E9464
:10125000651A882391F30E948909EFCF0E948E0EB0
:10126000ECCF292F332723303105C9F064F4213026
:10127000310581F02230310509F043C08DE690E060
:1012800020E133E042C021323105F1F02232310554
:1012900041F137C082E190E02DE733E036C0992775
:1012A0008130910541F08230910541F0892B49F55B
:1012B000ECE0F3E005C0E4EFF2E002C0ECEDF2E0B8
:1012C000849190E09F0121C06430D8F4E62FF0E0D3
:1012D000EE0FFF1FEE5DFE4F2081318189E090E02F
:1012E00014C0643070F470E0FB01EE0FFF1FE65E87
:1012F000FE4F20813181FB01EA5EFE4F808190E04C
:1013000004C080E090E020E030E0FA0131832083E7
:10131000089580E189BD82E189BD09B400FEFDCF59
:101320008091D8008F7D8093D8008091E00082600A
:101330008093E0008091E00081FDFCCF0895CF9282
:10134000DF92EF92FF920F931F93CF93DF93EC0105
:101350008B016A010E94020B811133C0C114D104B8
:1013600039F0F60180819181081B190BC80FD91F34
:10137000E12CF12C0115110519F18091E80085FD92
:1013800016C08091E8008E778093E800C114D104E4
:1013900049F0F60180819181E80EF91EF182E08228
:1013A00085E00FC00E94020B882321F30AC08991B7
:1013B0008093F10001501109FFEFEF1AFF0ADACF15
:1013C00080E0DF91CF911F910F91FF90EF90DF9020
:1013D000CF9008952091ED013091EE012617370747
:1013E00048F06115710539F42091E8002E772093BB
:1013F000E80001C0B90140E061157105A9F1209133
:10140000E601222309F443C0253009F442C02091AB
:10141000E80023FD40C02091E80022FD32C0209169
:10142000E80020FFE9CF4091F3002091F20030E086
:10143000342BFC01CF016115710559F028303105BD
:1014400040F481918093F100615071092F5F3F4F0B
:10145000F1CF41E02830310509F040E02091E8006B
:101460002E772093E800C8CF4111C9CF0AC08091E0
:10147000E601882361F0853061F08091E80083FD0A
:101480000AC08091E80082FFF2CF80E0089582E0F8
:10149000089583E0089581E008952091ED01309151
:1014A000EE012617370748F06115710539F42091D0
:1014B000E8002E772093E80001C0B901FC0120E08C
:1014C0006115710591F18091E601882309F440C00E
:1014D000853009F43FC08091E80083FD3DC08091D4
:1014E000E80082FD2FC08091E80080FFE9CF2091C5
:1014F000F3008091F20090E0922B6115710559F094
:101500008830910540F424912093F1003196615088
:1015100071090196F2CF21E0089709F020E080914F
:10152000E8008E778093E800CBCF2111CCCF0AC0A2
:101530008091E601882361F0853061F08091E800B8
:1015400083FD0AC08091E80082FFF2CF80E0089519
:1015500082E0089583E0089581E00895982F973000
:1015600058F59093E900981739F07091EC002091AC
:10157000ED005091F00003C0242F762F50E021FFA2
:1015800019C03091EB003E7F3093EB003091ED00BD
:101590003D7F3093ED003091EB0031603093EB00F4
:1015A0007093EC002093ED005093F0002091EE003A
:1015B00027FF07C09F5FD3CF8F708093E90081E042
:1015C000089580E008958091E70187FF11C0809120
:1015D000E80082FD05C08091E6018111F8CF11C0BD
:1015E0008091E8008B770BC08091E601882349F059
:1015F0008091E80080FFF8CF8091E8008E7780939B
:10160000E80008952091E4003091E50095E64091CE
:10161000EC00842F817040FF22C08091E80080FDA3
:101620001CC08091E601882391F0853091F0809173
:10163000EB0085FD10C04091E4005091E500421799
:10164000530729F39A01915011F784E0089582E03D
:10165000089583E0089581E0089580E00895409121
:10166000E80042FFDECF08950E94A20B0E94AA0B61
:10167000E0EEF0E0808181608083E8EDF0E0808141
:101680008F77808319BCA7EDB0E08C918E7F8C930F
:1016900080818F7E80831092E50108950F931F93C0
:1016A000CF93DF930E94A20B0E94AA0BC8EDD0E05B
:1016B00088818F77888388818068888388818F7DFF
:1016C000888319BC1092E6011092E2011092E401A5
:1016D0001092E30100EE10E0F80180818B7F80839F
:1016E00088818160888342E060E080E00E94AE0AE9
:1016F000E1EEF0E080818E7F8083E2EEF0E0808199
:1017000081608083808188608083F80180818E7F02
:101710008083888180618883DF91CF911F910F91B1
:101720000895E8EDF0E080818F7E8083E7EDF0E0C2
:1017300080818160808384E082BF81E08093E501C5
:101740000C944E0BE8EDF0E080818E7F8083109248
:10175000E20008951092DA001092E10008951F92BD
:101760000F920FB60F9211242F933F934F935F93D5
:101770006F937F938F939F93AF93BF93EF93FF9359
:101780008091E10082FF0BC08091E20082FF07C0E0
:101790008091E1008B7F8093E1000E94160E809182
:1017A000DA0080FF1FC08091D80080FF1BC08091AD
:1017B000DA008E7F8093DA008091D90080FF0DC01F
:1017C00080E189BD82E189BD09B400FEFDCF81E0E1
:1017D0008093E6010E94110805C019BC1092E60131
:1017E0000E941F088091E10080FF19C08091E200F3
:1017F00080FF15C08091E2008E7F8093E20080918F
:10180000E20080618093E2008091D8008062809342
:10181000D80019BC85E08093E6010E9423088091DE
:10182000E10084FF30C08091E20084FF2CC080E1A1
:1018300089BD82E189BD09B400FEFDCF8091D80049
:101840008F7D8093D8008091E1008F7E8093E100AE
:101850008091E2008F7E8093E2008091E2008160BF
:101860008093E2008091E201882311F084E007C0B8
:101870008091E30087FD02C081E001C083E0809396
:10188000E6010E9425088091E10083FF29C0809134
:10189000E20083FF25C08091E100877F8093E10013
:1018A00082E08093E6011092E2018091E1008E7F58
:1018B0008093E1008091E2008E7F8093E20080912E
:1018C000E20080618093E20042E060E080E00E94FC
:1018D000AE0A8091F00088608093F0000E94220898
:1018E000FF91EF91BF91AF919F918F917F916F91F8
:1018F0005F914F913F912F910F900FBE0F901F90CE
:1019000018951F920F920FB60F9211242F933F93A9
:101910004F935F936F937F938F939F93AF93BF93F7
:10192000CF93DF93EF93FF93C091E900CF70809145
:10193000EC00D82FD17080FDD0E81092E9008091A2
:10194000F000877F8093F00078940E94C50C10927D
:10195000E9008091F00088608093F000CD2BCF707B
:10196000C093E900FF91EF91DF91CF91BF91AF91CB
:101970009F918F917F916F915F914F913F912F91A7
:101980000F900FBE0F901F9018951F93CF93DF936A
:10199000CDB7DEB7AA970FB6F894DEBF0FBECDBFA6
:1019A000E7EEF1E088E08E0F9091F10091938E13B5
:1019B000FBCF0E9441088091E80083FF1FC1809106
:1019C000E7019091E801492F50E04A30510508F0B5
:1019D00015C1FA01EA5AFF4F0C94A922803881F010
:1019E000823809F00BC18091EB018F708093E90080
:1019F0008091EB0085FB882780F91092E90006C0F2
:101A00008091E3019091E401911182609091E8004E
:101A1000977F9093E8008093F1001092F100C8C086
:101A2000282F2D7F09F0EAC0882319F0823061F059
:101A3000E5C08091E901813009F0E0C0933009F000
:101A400080E08093E4012BC08091E901811127C0DF
:101A50008091EB018F7009F4D1C08093E90020914F
:101A6000EB0020FF1CC0933021F48091EB008062DA
:101A700014C09091EB0090619093EB0021E030E076
:101A8000A90102C0440F551F8A95E2F74093EA006E
:101A90001092EA008091EB0088608093EB00109236
:101AA000E9008091E800877F86C08111A7C010916E
:101AB000E9011F778091E3008078812B8093E30018
:101AC0008091E800877F8093E8000E94E30A80917C
:101AD000E80080FFFCCF8091E30080688093E30002
:101AE000111102C082E001C083E08093E60186C04C
:101AF0008058823008F082C08091E9019091EA011B
:101B00008C3D53E0950779F583E08A838AE28983E7
:101B10004FB7F894DE01139620E03EE051E2E32F48
:101B2000F0E050935700E49120FF03C0E295EF707E
:101B30003F5FEF708E2F90E0EA3010F0C79601C043
:101B4000C0968D939D932F5F243149F74FBF8091AD
:101B5000E800877F8093E8006AE270E0CE0101969A
:101B60000E94EA0914C0AE014F5F5F4F6091EB0124
:101B70000E943109BC01892B09F440C09091E80012
:101B8000977F9093E80089819A810E944D0A809105
:101B9000E8008B778093E80031C0803879F5809138
:101BA000E800877F8093E8008091E2018093F10054
:101BB0008091E8008E778093E8000E94E30A1EC0BF
:101BC00081111CC09091E9019230C0F48091E8002D
:101BD000877F8093E8009093E2010E94E30A80915E
:101BE000E201811106C08091E30087FD02C081E01F
:101BF00001C084E08093E6010E942D088091E800F6
:101C000083FF0AC08091E800877F8093E80080917D
:101C1000EB0080628093EB00AA960FB6F894DEBFCB
:101C20000FBECDBFDF91CF911F9108950895CF933F
:101C30008091E6018823A1F0C091E900CF709091D6
:101C4000EC00892F817090FD80E8C82B1092E9008C
:101C50008091E80083FD0E94C50CCF70C093E9001D
:101C6000CF91089590936901809368010895E09160
:101C70006801F0916901309721F00190F081E02D29
:101C8000099480E00895E0916801F091690130972E
:101C900021F00280F381E02D09940895E09168011C
:101CA000F0916901309721F00480F581E02D0994CD
:101CB000089520916601309167018217930771F0B2
:101CC0009093670180936601E0916801F09169014A
:101CD000309721F00680F781E02D09940895209136
:101CE0006401309165018217930771F0909365014B
:101CF00080936401E0916801F0916901309721F0CF
:101D00000084F185E02D0994089508950C94850EC2
:101D10000E947F1A0E940B040C94461BCF92DF9204
:101D2000EF92FF920F931F93CF93DF93CDB7DEB760
:101D30002B970FB6F894DEBF0FBECDBF0E942304D1
:101D40008BE6C82E81E0D82E00E010E0E02E802F38
:101D50000E941105F60141916F01F42EF826B1F4AD
:101D60000F5F1F4F0E30110589F78FEF89838A832C
:101D70001B820E94881A8160782F9D838C83498101
:101D80005A816B818D810E94310F40C09091CD01AD
:101D900091FF04C08B870E9417058B8520E030E0FF
:101DA0004F2D50E0922FBA01022E02C07595679513
:101DB0000A94E2F760FF24C02E83EF8221E030E036
:101DC000690102C0CC0CDD1C9A95E2F790E08C21F1
:101DD0009D21892B09F420E028870E94881A8160C0
:101DE000782F9A8789874E815F8168858A850E94CE
:101DF000310FF801E559FE4F8081C826C08206C028
:101E00002F5F3F4F2630310569F6AACF0E942D1E65
:101E100010916A010E94370E1817A1F00E94370E28
:101E200080936A012B960FB6F894DEBF0FBECDBF2C
:101E3000DF91CF911F910F91FF90EF90DF90CF90A6
:101E40000C9430072B960FB6F894DEBF0FBECDBFB3
:101E5000DF91CF911F910F91FF90EF90DF90CF9086
:101E60000895CF93DF93CDB7DEB72B970FB6F894D5
:101E7000DEBF0FBECDBF4F83588769877A878B87B8
:101E8000DE01119686E0FD0111928A95E9F785E061
:101E9000FE01379601900D928A95E1F749815A81AA
:101EA0006B817C818D819E810E9452162B960FB68C
:101EB000F894DEBF0FBECDBFDF91CF910895089596
:101EC000CF93882309F4C2C0C82F823859F40E94E6
:101ED000370E81FDBBC089E30E94EE180E94BB193A
:101EE00089E30CC0833879F40E94370E80FDAEC0C0
:101EF00083E50E94EE180E94BB1983E50E94301909
:101F0000CF910C94BB19843859F40E94370E82FD8E
:101F10009DC087E40E94EE180E94BB1987E4EECFB3
:101F20008CEF8C0F813A48F48C2F0E947420811121
:101F30008DC08C2F0E94EE18E3CF80E28C0F88308A
:101F400048F4C77081E001C0880FCA95EAF70E9483
:101F50007419D6CF8BE58C0F833078F4C53A29F00D
:101F6000C63A31F083E890E005C081E890E002C015
:101F700082E890E0CF910C94590E88E58C0F833164
:101F800008F064C0C83A39F1C93A41F1CA3A49F196
:101F9000CB3A51F1CC3A59F1CD3A61F1C03B69F1FC
:101FA000CE3A71F1CF3A79F1C13B81F1C23B89F16F
:101FB000C33B91F1C43B99F1C53BA1F1C63BA9F1EB
:101FC000C73BB1F1C83BB9F1C93BC1F1CA3BC9F14B
:101FD00080E090E038C082EE90E035C089EE90E07D
:101FE00032C08AEE90E02FC085EB90E02CC086EBEB
:101FF00090E029C087EB90E026C08CEC90E023C0F5
:102000008DEC90E020C083E891E01DC08AE891E06B
:102010001AC082E991E017C084E991E014C081E21E
:1020200092E011C083E292E00EC084E292E00BC025
:1020300085E292E008C086E292E005C087E292E085
:1020400002C08AE292E0CF910C946F0ECF91089576
:10205000882309F44BC0823859F40E94370E81FF5F
:1020600045C089E30E94EE180E94BB1989E30CC0A9
:10207000833871F40E94370E80FF38C083E50E94D8
:10208000EE180E94BB1983E50E9430190C94BB190D
:10209000843859F40E94370E82FF28C087E40E94DA
:1020A000EE180E94BB1987E4EFCF9CEF980F913A8E
:1020B00058F390E2980F983050F4877091E001C087
:1020C000990F8A95EAF7892F0E947A19DFCF9BE54D
:1020D000980F933020F480E090E00C94590E885AC9
:1020E000833120F480E090E00C946F0E08958823F3
:1020F00021F00E9474190C94BB190895882321F0D3
:102100000E947A190C94BB190895BF92CF92DF9266
:10211000EF92FF920F931F93CF93DF9300D000D0E5
:1021200000D0CDB7DEB725E0FC01DE0111960190AD
:102130000D922A95E1F7FC01D08011810281258161
:1021400022952F7043815481452B09F4EDC21F3F26
:1021500021F4FFEFDF1609F4E7C27C012E830E9411
:102160005F0FD9821A8389819A810E94AD18182F36
:10217000B92E0E94AC180E9473172E81002319F00B
:102180000E9491192E81EB2DE295EF70F0E0E05A5C
:10219000FF4F0C94A9228B2D807F9B2D9F70F92ED1
:1021A000882319F0F29480EFF822002349F0FF20F1
:1021B00009F467C28F2D0E9484190E94BB1961C265
:1021C000812F0E942810FF2009F4AEC28F2D0E949B
:1021D0008A1926960FB6F894DEBF0FBECDBFDF91E9
:1021E000CF911F910F91FF90EF90DF90CF90BF9014
:1021F0000C94BB193B2D307F8B2D8F70303211F03A
:102200008295807F112319F0113021F12CC0002319
:10221000B9F0222309F4A0C1213009F09DC126960E
:102220000FB6F894DEBF0FBECDBFDF91CF911F91E7
:102230000F91FF90EF90DF90CF90BF900C94A41976
:10224000222319F0213009F46FC28E830E94A7194E
:102250008E8196C1002321F0223008F065C27CC136
:10226000211162C28DC1002321F0222309F474C11F
:1022700008C2222309F484C119C22B2D2695269564
:10228000237030E02115310521F021303105D1F0E6
:102290004BC2002321F0812F9B2D937002C080E060
:1022A00090E026960FB6F894DEBF0FBECDBFDF914B
:1022B000CF911F910F91FF90EF90DF90CF90BF9043
:1022C0000C94590E002321F0812F9B2D937002C096
:1022D00080E090E026960FB6F894DEBF0FBECDBF2B
:1022E000DF91CF911F910F91FF90EF90DF90CF90F2
:1022F000BF900C946F0E812F002319F00E94351DA2
:1023000002C00E949D1D26960FB6F894DEBF0FBE38
:10231000CDBFDF91CF911F910F91FF90EF90DF9094
:10232000CF90BF900C94221E8B2D837009F07BC040
:102330000111FAC1812F829586958770880F880FC9
:10234000912F9F70C92ED12CE12CF12C082E04C0A6
:10235000CC0CDD1CEE1CFF1C0A94D2F714FF12C03B
:102360004FE050E060E070E004C0440F551F661F6E
:10237000771F8A95D2F7CB01BA0160957095809549
:10238000909503C060E070E0CB012B2D269526953B
:102390002370422F50E042305105D9F043305105AF
:1023A00069F16C297D298E299F294130510551F110
:1023B00026960FB6F894DEBF0FBECDBFDF91CF914A
:1023C0001F910F91FF90EF90DF90CF90BF900C94F2
:1023D0009A176C297D298E299F2926960FB6F89485
:1023E000DEBF0FBECDBFDF91CF911F910F91FF9048
:1023F000EF90DF90CF90BF900C94B6170E949A1781
:10240000C701B60126960FB6F894DEBF0FBECDBF4A
:10241000DF91CF911F910F91FF90EF90DF90CF90C0
:10242000BF900C947E17002319F08B2D817001C092
:102430008695882309F478C1812F829586958770C7
:10244000880F880F912F9F70C92ED12CE12CF12C71
:10245000082E04C0CC0CDD1CEE1CFF1C0A94D2F725
:1024600014FF12C04FE050E060E070E004C0440F81
:10247000551F661F771F8A95D2F7CB01BA01609569
:1024800070958095909503C060E070E0CB012B2D96
:10249000269526952370422F50E042305105D9F001
:1024A0004330510569F16C297D298E299F294130DE
:1024B000510551F126960FB6F894DEBF0FBECDBF81
:1024C000DF91CF911F910F91FF90EF90DF90CF9010
:1024D000BF900C9474186C297D298E299F2926960B
:1024E0000FB6F894DEBF0FBECDBFDF91CF911F9125
:1024F0000F91FF90EF90DF90CF90BF900C949018C9
:102500000E947418C701B60126960FB6F894DEBF74
:102510000FBECDBFDF91CF911F910F91FF90EF9034
:10252000DF90CF90BF900C945818103FD1F118F461
:10253000103E50F4A1C0123F09F463C008F44CC02F
:10254000133F09F473C098C01F708B2D8F71002347
:10255000A1F00E94F117812F26960FB6F894DEBFE6
:102560000FBECDBFDF91CF911F910F91FF90EF90E4
:10257000DF90CF90BF900C9477100E941218812F9B
:1025800026960FB6F894DEBF0FBECDBFDF91CF9178
:102590001F910F91FF90EF90DF90CF90BF900C9420
:1025A0007E100023A9F02111BFC08B2D8F712696BC
:1025B0000FB6F894DEBF0FBECDBFDF91CF911F9154
:1025C0000F91FF90EF90DF90CF90BF900C94371851
:1025D000223008F0A9C0E9CF0023A9F08B2D8F711C
:1025E00026960FB6F894DEBF0FBECDBFDF91CF9118
:1025F0001F910F91FF90EF90DF90CF90BF900C94C0
:10260000F117002359F38B2D8F7126960FB6F8948E
:10261000DEBF0FBECDBFDF91CF911F910F91FF9015
:10262000EF90DF90CF90BF900C941218002399F098
:102630008B2D8F7126960FB6F894DEBF0FBECDBFDF
:10264000DF91CF911F910F91FF90EF90DF90CF908E
:10265000BF900C94DC1726960FB6F894DEBF0FBE21
:10266000CDBFDF91CF911F910F91FF90EF90DF9041
:10267000CF90BF900C94D2170023A9F0222309F425
:10268000ADCF812F26960FB6F894DEBF0FBECDBF1B
:10269000DF91CF911F910F91FF90EF90DF90CF903E
:1026A000BF900C94600F222309F4ADCF812F2696A2
:1026B0000FB6F894DEBF0FBECDBFDF91CF911F9153
:1026C0000F91FF90EF90DF90CF90BF900C94281067
:1026D0004B2D4F70612FC7010E94AB0226960FB69B
:1026E000F894DEBF0FBECDBFDF91CF911F910F9148
:1026F000FF90EF90DF90CF90BF900C94F6164B2D8B
:102700004F70612FC70126960FB6F894DEBF0FBE3B
:10271000CDBFDF91CF911F910F91FF90EF90DF9090
:10272000CF90BF900C94D70526960FB6F894DEBFD5
:102730000FBECDBFDF91CF911F910F91FF90EF9012
:10274000DF90CF90BF9008950E9491190E94A11927
:102750000E9466190E94BB190E94D31E0E94221E6D
:1027600080E090E00E94590E80E090E00C946F0EA3
:102770000E9481190C94A4130E94AD18292F229550
:102780002F7030E02C3031054CF42A3031056CF4D8
:10279000225031092230310588F407C02C30310530
:1027A00049F02F30310531F009C0803E48F0803FBC
:1027B00029F406C093FB882780F9089580E00895E6
:1027C00081E00895CF93DF9300D000D01F92CDB762
:1027D000DEB70F900F900F900F900F90DF91CF9179
:1027E0000895CF93DF9300D000D000D0CDB7DEB7EF
:1027F00026960FB6F894DEBF0FBECDBFDF91CF9106
:1028000008951F93CF93DF93C091790116E08091D3
:102810007A01C81799F0D0E01C9FF0011D9FF00DC0
:102820001124E558FE4F408151816281738184817A
:1028300095810E94F1132196C770E9CFDF91CF9166
:102840001F9108954091AB015091AC016091AD0191
:102850007091AE018091AF019091B0010C94F11391
:102860008091B00182958F7009F054C08091AD01C4
:10287000882309F44FC080917901A0917A01609179
:10288000AB017091AC014091AE015091AF01B6E047
:102890008A1709F43FC090E041155105C1F17F3F0F
:1028A00011F46F3FA1F1B89FF001B99FF00D112411
:1028B000E558FE4F218172132AC02081621327C080
:1028C0002281211124C0238134812417350710F47B
:1028D00021503109241B350B283C3105C0F42091CF
:1028E000B0012F7020612093B00126E0289FF001F5
:1028F000299FF00D1124E058FE4F80818F70806178
:1029000080838BEA91E00E9485100C94011401965B
:102910008770BECF0895CF92DF92EF92FF920F9310
:102920001F93CF93DF93CDB7DEB762970FB6F894BE
:10293000DEBF0FBECDBF8C0185E0F801DE011D9624
:1029400001900D928A95E1F7D8014C9111965C9116
:10295000119712966C9112971396CD90DC90149764
:102960003091AB017091AC018091AE019091AF01BB
:10297000009709F46BC17F3F19F43F3F09F466C12A
:10298000E090AD01EE2009F4C0C02091B001C8165E
:10299000D90628F0F601E81BF90BCF0104C0809599
:1029A00090958C0D9D1DFF24F394883C910578F043
:1029B000F12C207F09F0C6C07C2DD98AC88A89896C
:1029C0000E94E2138BEA91E00E948510B1C0822F31
:1029D000807F09F046C0751314C0341312C0611112
:1029E00010C02F7020612093B0010E9422148BEA46
:1029F00091E00E9485108091B001D80115968C93CA
:102A00002EC0CD2819F15F3F11F44F3FF9F0F62E9B
:102A100061111CC08091790120917A0136E0821702
:102A200009F45AC090E0389FF001399FF00D11244D
:102A3000E558FE4F7181571306C07081471303C0DC
:102A40007281711103C001968770E9CFF62E66235B
:102A500009F418C18091B00181608093B001F12C1C
:102A600011C1751308C0341306C0611104C08091F0
:102A7000B001D801C3C04D875E878D859E856A8B66
:102A80000E94BC136A898823E1F16623D1F1209169
:102A9000B001822F82958F7090E0029774F0809140
:102AA000AB019091AC0198878F831986DB86CA862B
:102AB0002C87CE0107960E94851086E0F801ABEACC
:102AC000B1E001900D928A95E1F70E9430140E94C6
:102AD0002214FF24F394D6C04D875E878D859E8592
:102AE0000E94AD18292F22952F7030E02230310539
:102AF0000CF0BCC09F7009F0B6C0805E883008F44E
:102B0000C1C0C8010E948510E4CFC816D90608F4D8
:102B100053C0F601E81BF90BCF01883C910508F47E
:102B200050C0F12C7C2DD98AC88A89890E94E21371
:102B3000EBEAF1E086E0DF011D928A95E9F70E9459
:102B40002214A0C0751314C0341312C0611110C038
:102B50008091B001F8018583C8010E94851086E04C
:102B6000EBEAF1E0DF011D928A95E9F7FE2C8AC0BD
:102B70004D875E878D859E856A8B0E94BC136A890E
:102B8000882309F4BECF662309F4BBCF2091B0019E
:102B9000822F82958F7090E002970CF48ECF8091F7
:102BA000AB019091AC019A8389831B82DD82CC8238
:102BB0002E83CE0101967FCF809590958C0D9D1D23
:102BC000ACCFF62E662309F49CCF75132EC03413B8
:102BD0002CC02091B00120FD1FC0822F82958F70E4
:102BE000D9F0D80115962C9315978F3049F08F5F47
:102BF000982F9295907F822F8F70892B15968C93AA
:102C0000C8010E94851086E0F801ABEAB1E00190AE
:102C10000D928A95E1F793CF86E0F801ABEAB1E037
:102C200001900D928A95E1F72DC04D875E878D85C5
:102C30009E850E94BC13811140CF8091B0018160BC
:102C40008093B001C8010E9485101CC0662309F45E
:102C500058CF4D875E878D859E850E94BC13882343
:102C600009F44FCF2ACF811148CF0CC02430310551
:102C70000CF047CF9F7009F440CFF8019581907F09
:102C800009F03BCF8F2D62960FB6F894DEBF0FBED2
:102C9000CDBFDF91CF911F910F91FF90EF90DF900B
:102CA000CF9008951F93CF93DF93CDB7DEB72C97C6
:102CB0000FB6F894DEBF0FBECDBF4F83588769872C
:102CC0007A878B879C87CE0107960E948B14882376
:102CD00069F08F8198852A853B85232BF1F19F3FF1
:102CE00009F063C08F3F09F060C037C086E0FE0185
:102CF0003796DE01119601900D928A95E1F76F816A
:102D00007885EA85FB85309741F17F3F11F46F3F6D
:102D100021F120917A0130E0C9010196877099274D
:102D20004091790150E08417950709F447C0698301
:102D30007A83FD83EC8396E0929FD001939FB00D40
:102D40001124A558BE4FFE01319601900D929A951F
:102D5000E1F780937A010E94011416E080917901D5
:102D600090917A018917C1F1189FC00111248558EB
:102D70009E4F0E948B14882379F1E09179011E9F68
:102D8000F0011124E558FE4F408151816281738129
:102D9000848195810E94F1138091790190E00196E0
:102DA0008770992780937901D9CF4F81588569859C
:102DB0007A858B859C850E94F113CFCF0E94B81332
:102DC00010927A0110927901EBEAF1E086E0DF01DE
:102DD0001D928A95E9F7C1CF2C960FB6F894DEBF05
:102DE0000FBECDBFDF91CF911F910895EF92FF925B
:102DF0000F931F93CF93DF938C01892B09F46CC041
:102E0000F12CEE24E394E8012196F80184918437B3
:102E100040F4843008F051C0813081F0823019F1E3
:102E20005BC0853709F444C0A8F19CE7980F903740
:102E300008F052C08F770E94281041C00E5F1F4FCC
:102E4000FE01C49180E28C0F883048F4C7708E2D4B
:102E500001C0880FCA95EAF70E94941914C08C2FFC
:102E60000E94600F2DC00E5F1F4FFE01C49180E2D3
:102E70008C0F883058F4C7708E2D01C0880FCA950A
:102E8000EAF70E949A190E94BB191AC08C2F0E945F
:102E9000281016C00E5F1F4FFE01C491CC2381F095
:102EA0008FE99FE00197F1F700C00000C150F6CF15
:102EB0000E5F1F4FFE01F49003C00E94600F8E0151
:102EC0008F2D882309F49FCFEFE9FFE03197F1F7C9
:102ED00000C000008150F5CFDF91CF911F910F917D
:102EE000FF90EF90089508956093B5017093B60137
:102EF0008093B7019093B8010C94A4130F931F9380
:102F00000091B5011091B6012091B7013091B8013F
:102F1000DC01CB01802B912BA22BB32B8093B5012D
:102F20009093B601A093B701B093B8011F910F9190
:102F30000C94A4130F931F930091B5011091B60147
:102F40002091B7013091B801DC01CB01802391239E
:102F5000A223B3238093B5019093B601A093B70148
:102F6000B093B8011F910F910C94A4130F931F936A
:102F70000091B5011091B6012091B7013091B801CF
:102F8000DC01CB0180279127A227B3278093B501CD
:102F90009093B601A093B701B093B8011F910F9120
:102FA0000C94A4131092B1011092B2011092B301CB
:102FB0001092B4010C94A41341E050E060E070E082
:102FC00004C0440F551F661F771F8A95D2F74093A0
:102FD000B1015093B2016093B3017093B4010C94AA
:102FE000A41341E050E060E070E004C0440F551FBE
:102FF000661F771F8A95D2F78091B1019091B20137
:10300000A091B301B091B401482B592B6A2B7B2BB3
:103010004093B1015093B2016093B3017093B40136
:103020000C94A41341E050E060E070E004C0440F51
:10303000551F661F771F8A95D2F74095509560956A
:1030400070958091B1019091B201A091B301B091BE
:10305000B401482359236A237B234093B101509341
:10306000B2016093B3017093B4010C94A41341E0D6
:1030700050E060E070E004C0440F551F661F771FEA
:103080008A95D2F78091B1019091B201A091B301DC
:10309000B091B401482759276A277B274093B10193
:1030A0005093B2016093B3017093B4010C94A413D4
:1030B0000F931F930091B1011091B2012091B301C0
:1030C0003091B401DC01CB01802B912BA22BB32BCF
:1030D0008093B1019093B201A093B301B093B40176
:1030E0001F910F910C94A4130F931F930091B101A2
:1030F0001091B2012091B3013091B401DC01CB01F8
:1031000080239123A223B3238093B1019093B20132
:10311000A093B301B093B4011F910F910C94A41329
:103120000F931F930091B1011091B2012091B3014F
:103130003091B401DC01CB0180279127A227B3276E
:103140008093B1019093B201A093B301B093B40105
:103150001F910F910C94A4130895CF92DF92EF92D8
:10316000FF920F931F93CF93DF938C01C090B50113
:10317000D090B601E090B701F090B8014091B10154
:103180005091B2016091B3017091B401C42AD52A63
:10319000E62AF72ACFE1D0E0D701C6010C2E04C001
:1031A000B695A795979587950A94D2F780FF07C0A3
:1031B000B8018C2F0E94FA058130910531F42197D6
:1031C00058F7B80180E00E94FA05DF91CF911F9176
:1031D0000F91FF90EF90DF90CF90089590910C01A8
:1031E000992321F090910D01911109C020910E01B8
:1031F00030910F01F90132969FEF40E01FC0982FE8
:103200009695969596959F3050F5E0910E01F09128
:103210000F01E90FF11D877021E030E0A90102C024
:10322000440F551F8A95E2F7CA019181892B81834A
:1032300008959F3F39F04F5F4E3041F05191581340
:10324000F8CF0DC05111F7CF942FF5CF9F3F39F034
:10325000F901E90FF11D97FDFA958283089508950C
:1032600090910C01992321F090910D01911109C0C9
:1032700020910E0130910F01F9013296205F3F4FEE
:103280001FC0982F9695969596959F30F0F4E091F3
:103290000E01F0910F01E90FF11D877021E030E080
:1032A000A90102C0440F551F8A95E2F7CA01809513
:1032B00091818923818308953196E217F30729F0DC
:1032C00090819813F9CF1082F7CF089581E090E0B4
:1032D000E0910E01F0910F01E80FF91F10820196A5
:1032E00080319105A9F708959091CC01892B8093A5
:1032F000CC01089580959091CC0189238093CC01D5
:1033000008951092CC0108959091CB01892B809360
:10331000CB01089580959091CB0189238093CB01B7
:1033200008951092CB0108959091CA01892B809342
:10333000CA01089580959091CA0189238093CA019A
:1033400008951092CA0108958093B90108951092CA
:10335000B901089580910E0190910F01FC01319601
:103360009C01205F3F4F80E0919191118F5FE217A8
:10337000F307D1F70895E0910E01F0910F018091CC
:10338000CC018083E0910E01F0910F01908180913A
:10339000CB01892B8083E0910E01F0910F01908188
:1033A0008091CA01892B80838091B901882361F0C3
:1033B000E0910E01F0910F019081892B80830E9492
:1033C000AA1981111092B90180910E0190910F01FB
:1033D0000C94430ECF92DF92EF92FF926C01EE2499
:1033E000FF24C114D104E104F10421F0C701B601A6
:1033F00020E101C020E0C72ED82EE92EFF24C11401
:10340000D104E104F10419F0285FC701B6016B0192
:103410007C0154E0F694E794D794C7945A95D1F779
:10342000C114D104E104F10419F02C5FC701B60105
:103430006B017C0142E0F694E794D794C7944A95D7
:10344000D1F7C114D104E104F10419F02E5FC701D2
:10345000B601DC01CB01B695A79597958795892B89
:103460008A2B8B2B09F02F5F822FFF90EF90DF903C
:10347000CF9008958091E601843021F11092CE0121
:1034800020E488E190E00FB6F894A895809360005E
:103490000FBE2093600080E00E94300783B7817FD9
:1034A000846083BF83B7816083BF7894889583B736
:1034B0008E7F83BF88E10FB6F894809360001092EE
:1034C00060000FBE089508950895CF930E94631A77
:1034D0000E9423040E94641AC0E08C2F0E941105F0
:1034E000811104C0CF5FCE30C1F701C081E0CF9120
:1034F00008950E94B8130E94370E0C94300782E0A2
:1035000084BD93E095BD9AEF97BD80936E000895BA
:103510002FB7F8948091CF019091D001A091D10163
:10352000B091D2012FBF0895CF92DF92EF92FF9218
:103530000F931F932FB7F8944091CF015091D00172
:103540006091D1017091D2012FBF6A017B01EE24FD
:10355000FF248C0120E030E0C016D106E206F3061D
:1035600010F4415051099A01281B390BC9011F91D0
:103570000F91FF90EF90DF90CF9008951F920F92E0
:103580000FB60F9211248F939F93AF93BF938091A7
:10359000CF019091D001A091D101B091D2010196BB
:1035A000A11DB11D8093CF019093D001A093D101B3
:1035B000B093D201BF91AF919F918F910F900FBEA9
:1035C0000F901F9018950E94340BF8942FEF87EA04
:1035D00091E6215080409040E1F700C0000087E074
:1035E00090EBDC018093EF019093F001A093F10147
:1035F000B093F2012CE088E190E00FB6F894A89522
:10360000809360000FBE20936000FFCFEF92FF9287
:103610000F931F93CF93DF93D82FC0E08C2F0E947E
:10362000110500E010E0E82EF12CC701002E02C0C9
:10363000959587950A94E2F780FD06C00F5F1F4FAE
:103640000630110591F709C0602F7C2F80E00E94A1
:10365000D805D813F3CF81E004C0CF5FCE30F1F6A8
:1036600080E0DF91CF911F910F91FF90EF9008952F
:10367000CF93C82F8CE20E94061B882321F08C2F49
:10368000CF910C94061B80E0CF910895CF930E94B8
:103690008D1C811102C00E94731CC5E6C15049F007
:1036A0000E9423048FE39CE90197F1F700C000001A
:1036B000F5CF89E20E94381B811113C18AE20E9472
:1036C000381B81110E94731C85E00E94381B8111F8
:1036D0000E94E31A0E94981C8093CD0187E00E940B
:1036E000381B8823A9F18BE10E94381B882351F0F5
:1036F0008091CD0181FB222720F991E0922790FB58
:1037000081F90EC08EE00E94381B882361F0809101
:10371000CD0182FB222720F991E0922790FB82F9CC
:103720008093CD0115C080E10E94381B9091CD019E
:10373000882341F093FB222720F981E0822780FB38
:1037400093F904C0892F809580FB90F99093CD0167
:103750008091CD010E949C1C0E94AA1C8093E001D4
:1037600080EE0E94381B882341F08091E001982F61
:10377000909590FB80F98093E00189E30E94381BCB
:10378000882359F08091E00181FB222720F991E004
:10379000922790FB81F98093E00182EE0E94381B12
:1037A000882359F08091E00182FB222720F991E0E3
:1037B000922790FB82F98093E00186EE0E94381BED
:1037C000882359F08091E00183FB222720F991E0C2
:1037D000922790FB83F98093E00183EE0E94381BCF
:1037E000882359F08091E00184FB222720F991E0A1
:1037F000922790FB84F98093E00185E30E94381BB7
:10380000882359F08091E00185FB222720F991E07F
:10381000922790FB85F98093E00181E30E94381B99
:10382000882359F08091E00186FB222720F991E05E
:10383000922790FB86F98093E00181E10E94381B7A
:10384000882359F08091E00187FB222720F991E03D
:10385000922790FB87F98093E0018091E0010E941C
:10386000AE1C8091E00187FB882780F980930D01D1
:1038700087E20E94381BC82F8EE10E94381B8111FD
:10388000C2608FE10E94381B8111C46080E20E94F7
:10389000381B8111C86081E20E94381B8111C06110
:1038A00082E20E94381B8111C06283E20E94381BB1
:1038B0008111C06484E20E94381B882311F0C06823
:1038C00002C0CC2329F08C2F0E94A51C6C2F03C0B2
:1038D0000E94A11C682F70E080E090E0CF910C94D2
:1038E0007417CF9108956DEE7EEF80E090E00E9416
:1038F000DF2260E082E090E00E94D12260E083E07D
:1039000090E00E94D12260E084E090E00E94D12209
:1039100060E085E090E00C94D12280E090E00E948D
:10392000CB2221E08D3E9E4F09F020E0822F0895AA
:1039300082E090E00C94C322682F82E090E00C9427
:10394000D12283E090E00C94C322682F83E090E0C2
:103950000C94D12284E090E00C94C322682F84E080
:1039600090E00C94D1228091D50180FF0BC0609132
:10397000130185E0689FB0011124759567957595D1
:1039800067952BC081FF09C06091130185E0689F96
:10399000B00111247595679520C082FF07C0609122
:1039A000130185E0689FB001112417C09091D601E2
:1039B0009923D1F060911201961788F72091130195
:1039C00085E0289F90011124929FA001939F500DA4
:1039D000112470E0CA010E9495226038710540F4FC
:1039E0006115710539F002C065E070E0862F089519
:1039F0008FE7089581E008958091D50180FF08C088
:103A00006091110170E0759567957595679521C076
:103A100081FF06C06091110170E07595679519C02E
:103A200082FF04C06091110170E010C09091D60136
:103A30009923C1F0609110019617A0F780911101B0
:103A4000899FC001112470E00E94952260387105A1
:103A500028F46115710521F0862F08958FE70895E8
:103A600081E0089561E070E0F4CF803F21F40E948E
:103A7000B31C819504C0813F29F40E94B31C80933C
:103A8000D9010895823F21F40E94B31C819504C09E
:103A9000833F29F40E94B31C8093D8010895893F85
:103AA00019F40E94FC1C05C08A3F31F40E94FC1CE2
:103AB00081958093DA0108958B3F21F40E94FC1CCC
:103AC000819504C08C3F29F40E94FC1C8093DB018B
:103AD0000895843F21F48091D701816017C0853F0C
:103AE00021F48091D701826011C0863F21F480913A
:103AF000D70184600BC0873F21F48091D701886093
:103B000005C0883F31F48091D70180618093D7014F
:103B100008958D3F21F48091D50181600BC08E3FC7
:103B200021F48091D501826005C08F3F29F48091F6
:103B3000D50184608093D5010895803F39F4809148
:103B4000D90187FF6CC01092D90169C0813F29F467
:103B50008091D9011816BCF362C09091D801823FC0
:103B600029F497FF5CC01092D80159C0833F19F423
:103B70001916CCF354C0893F41F48091DA0118162C
:103B80000CF04DC01092DA014AC08A3F29F48091AE
:103B9000DA0187FF44C0F6CF8B3F39F48091DB0117
:103BA00087FF3DC01092DB013AC08C3F29F4809121
:103BB000DB011816BCF333C0843F21F48091D70198
:103BC0008E7F17C0853F21F48091D7018D7F11C072
:103BD000863F21F48091D7018B7F0BC0873F21F472
:103BE0008091D701877F05C0883F31F48091D7014C
:103BF0008F7E8093D70113C08D3F21F48091D50132
:103C00008E7F0BC08E3F21F48091D5018D7F05C042
:103C10008F3F29F48091D5018B7F8093D5018091CE
:103C2000D80181110EC08091D90181110AC0809103
:103C3000DA01811106C08091DB01811102C010926E
:103C4000D601089587ED91E00E944E0E0E94881AD9
:103C50009093D4018093D30108951F93CF93DF9362
:103C60008091D3019091D4010E94941AAC0190915B
:103C7000D601992321F02091140130E006C0209153
:103C800015018AE0289F900111244217530708F478
:103C900086C08091D801C091D901D091DA011091EC
:103CA000DB01811107C0C11176C0D11174C011119F
:103CB00072C075C09F3F19F09F5F9093D601181690
:103CC00024F40E94B31C8093D8018091D80187FF0F
:103CD00005C00E94B31C81958093D8011C1624F462
:103CE0000E94B31C8093D9018091D90187FF05C040
:103CF0000E94B31C81958093D9016091D8016623FD
:103D000039F1C091D901CC2319F1772767FD70955E
:103D1000872F972F0E94A62123E333E343E35FE33A
:103D20000E940A220E9473216093D8016C2F77278A
:103D300067FD7095872F972F0E94A62123E333E319
:103D400043E35FE30E940A220E9473216093D9013A
:103D50001D1624F40E94FC1C8093DA018091DA0184
:103D600087FF05C00E94FC1C81958093DA01111623
:103D700024F40E94FC1C8093DB018091DB0187FF0F
:103D800005C00E94FC1C81958093DB01DF91CF91DF
:103D90001F910C94221E9F3F09F08ECF96CFDF918A
:103DA000CF911F910895E7EDF1E085E0DF011D92CD
:103DB0008A95E9F71092D6011092D50108958330C3
:103DC00081F128F4813059F08230D1F008958530A6
:103DD00009F449C0B8F1863009F456C008958091BD
:103DE0001501262F30E0280F311D2F3F310524F417
:103DF000680F6093150108958FEF80931501089562
:103E000080911401262F30E0280F311D2F3F3105FE
:103E100024F4680F6093140108958FEF80931401C8
:103E2000089580911301262F30E0280F311D2F3F78
:103E3000310524F4680F6093130108958FEF809388
:103E40001301089580911201262F30E0280F311DB3
:103E50002F3F310524F4680F6093120108958FEF0E
:103E600080931201089580911101262F30E0280FD0
:103E7000311D2F3F310524F4680F6093110108951F
:103E80008FEF80931101089580911001262F30E06B
:103E9000280F311D2F3F310524F4680F6093100166
:103EA00008958FEF809310010895833011F128F465
:103EB000813049F0823091F00895853081F120F110
:103EC0008630C1F1089580911501681720F4861B92
:103ED00080931501089510921501089580911401A1
:103EE000681720F4861B8093140108951092140122
:103EF000089580911301681720F4861B80931301A5
:103F0000089510921301089580911201681720F40A
:103F1000861B8093120108951092120108958091DA
:103F20001101681720F4861B8093110108951092E7
:103F30001101089580911001681720F4861B809369
:103F4000100108951092100108950F931F938D3161
:103F500009F46AC008F03FC08E3009F484C0C0F490
:103F6000873009F46DC068F4863009F0B5C08091DF
:103F7000CD01817F8E7F8093CD0181E08093DD0133
:103F8000ACC0883009F457C08B3009F46AC0A4C0B3
:103F9000863109F466C078F4803109F477C0813144
:103FA00009F09AC00E94B81390910D0181E0892711
:103FB00080930D0156C0893109F453C08B3109F04B
:103FC0008BC08091CD0181FB222720F991E09227BF
:103FD00090FB81F951C0853309F475C048F48732EC
:103FE00009F471C008F45EC0893209F46CC074C071
:103FF000833430F48A3308F053C0883391F16CC0B5
:10400000833409F460C0883409F066C00E94B81394
:104010000FEF13ED20E3015010402040E1F700C006
:1040200000000E94E31A1DC00E942D210E94370E3D
:104030000E94300716C00E94981C0E94AA1C11C042
:104040009091CD01892F8095817080FB90F929F0A6
:10405000966098609093CD0140C0997F977F909330
:10406000CD0181E03AC08091CD0182FB222720F969
:1040700091E0922790FB82F98093CD01992389F3F7
:104080008091CD0181608093CD01EBCF8091CD01F6
:1040900083FB222720F991E0922790FB83F9ECCF54
:1040A000895301C08D5141E050E060E070E08A0129
:1040B0009B0104C0000F111F221F331F8A95D2F7E6
:1040C000C901B80104C061E070E080E090E00E94A6
:1040D00074170E94B813C5CF80E01F910F91089507
:1040E00080E0089580E00895CF93C82F8091DD018E
:1040F000813079F018F08230E9F187C0E0910E014B
:10410000F0910F018081813169F0823209F07FC026
:1041100009C0E0910E01F0910F018081813111F011
:10412000823261F48C2F0E947020811104C08C2F88
:104130000E94A51F1DC081E090E01AC08C2F0E9434
:104140007220811114C0C43179F048F4CB3079F079
:10415000C03109F060C082E08093DD0108C0C9323F
:1041600019F0C83321F057C01092DD0154C081E02E
:10417000817053C0C93289F118F5C43171F1A8F4C6
:10418000C73009F046C08AE08093150194E190930E
:10419000140193E0909313018093120188E08093BF
:1041A000110188E28093100134C0CE51C63088F5E9
:1041B000EC2FF0E0E65DFE4F80818093DC0129C0AA
:1041C000CE34E9F020F4CB3421F56AE013C0C135D8
:1041D00079F0C235F1F461E00DC08091DC018823F3
:1041E00019F01092DC0115C081E08093DD0115C04B
:1041F00061E006C08091DC010E94DF1E0AC06AE017
:104200008091DC010E94551F04C01092DD0180E006
:1042100004C081E002C080E0ABCFCF910895E1E817
:10422000F0E08081886080838081816080838FB7A7
:10423000F89493E09093890090ED909388008FBF5D
:104240000895EFE6F0E08081826080830895EFE6D4
:10425000F0E080818D7F80830895EFE6F0E090812B
:1042600082E08927808308951F920F920FB60F92E4
:1042700011242F933F934F935F936F937F938F936B
:104280009F93AF93BF93EF93FF938091DE01909143
:10429000DF0101969093DF018093DE01811103C05D
:1042A00082E00E943007E091DF01E695E695F0E0BC
:1042B000E657FB4FE4918091DE018E1303C080E04E
:1042C0000E943007FF91EF91BF91AF919F918F9125
:1042D0007F916F915F914F913F912F910F900FBE02
:1042E0000F901F90189504D06894B1118DC0089557
:1042F00070D088F09F5790F0B92F9927B751A0F050
:10430000D1F0660F771F881F991F1AF0BA95C9F769
:1043100012C0B13081F077D0B1E0089574C0672F3A
:10432000782F8827B85F39F0B93FCCF38695779519
:104330006795B395D9F73EF4909580957095619502
:104340007F4F8F4F9F4F0895E89409C097FB3EF42D
:1043500090958095709561957F4F8F4F9F4F9923D2
:10436000A9F0F92F96E9BB279395F6958795779550
:104370006795B795F111F8CFFAF4BB0F11F460FF10
:104380001BC06F5F7F4F8F4F9F4F16C0882311F068
:1043900096E911C0772321F09EE8872F762F05C07C
:1043A000662371F096E8862F70E060E02AF09A9517
:1043B000660F771F881FDAF7880F9695879597F90C
:1043C000089557FD9058440F551F59F05F3F71F005
:1043D0004795880F97FB991F61F09F3F79F087956C
:1043E0000895121613061406551FF2CF4695F1DFF5
:1043F00008C0161617061806991FF1CF8695710585
:10440000610508940895E894BB2766277727CB01B8
:1044100097F908950BD078C069D028F06ED018F0C5
:10442000952309F05AC05FC01124EECFCADFA0F374
:10443000959FD1F3950F50E0551F629FF001729F39
:10444000BB27F00DB11D639FAA27F00DB11DAA1F58
:10445000649F6627B00DA11D661F829F2227B00DA5
:10446000A11D621F739FB00DA11D621F839FA00D30
:10447000611D221F749F3327A00D611D231F849F80
:10448000600D211D822F762F6A2F11249F575040D7
:104490008AF0E1F088234AF0EE0FFF1FBB1F661F72
:1044A000771F881F91505040A9F79E3F510570F02B
:1044B00014C0AACF5F3FECF3983EDCF38695779566
:1044C0006795B795F795E7959F5FC1F7FE2B880F26
:1044D000911D9695879597F9089597F99F6780E8BC
:1044E00070E060E008959FEF80EC089500240A9446
:1044F0001616170618060906089500240A941216BF
:104500001306140605060895092E0394000C11F4F1
:10451000882352F0BB0F40F4BF2B11F460FF04C09E
:104520006F5F7F4F8F4F9F4F089597FB072E16F4B5
:10453000009407D077FD09D00E94AF2207FC05D078
:104540003EF4909581959F4F0895709561957F4FAA
:104550000895EE0FFF1F0590F491E02D0994AA1B1A
:10456000BB1B51E107C0AA1FBB1FA617B70710F05E
:10457000A61BB70B881F991F5A95A9F78095909590
:10458000BC01CD010895F999FECF92BD81BDF89A85
:10459000992780B50895A8E1B0E042E050E00C947E
:1045A000E622262FF999FECF1FBA92BD81BD20BD0C
:1045B0000FB6F894FA9AF99A0FBE019608950E94E0
:1045C000D122272F0C94D222DC01CB01FC01F999D6
:1045D000FECF06C0F2BDE1BDF89A319600B40D924F
:0C45E00041505040B8F70895F894FFCF08
:1045EC0020023207C0079D07690735070101BA0190
:1045FC0028080A03140A3F4D36394B04FE03C8033E
:10460C008F0322033B0354036D03010203040506CD
:04461C000708090082
:00000001FF
